:020000040800F2
:10000000005000207D170008551300085B130008FE
:1000100061130008671300086D130008000000005A
:100020000000000000000000000000007313000842
:100030007F130008000000008B13000897130008CE
:10004000C5170008C5170008C5170008C517000820
:10005000C5170008C5170008C5170008C517000810
:10006000C5170008C5170008C5170008C517000800
:10007000C5170008C5170008C5170008C5170008F0
:10008000C5170008C5170008C5170008C5170008E0
:10009000C5170008C5170008C5170008C5170008D0
:1000A000C5170008C5170008C5170008C5170008C0
:1000B000A5130008C5170008C5170008C5170008D4
:1000C000C5170008C5170008C5170008C5170008A0
:1000D000C5170008C5170008B9130008C5170008A0
:1000E000C5170008C5170008C51700080000000064
:1000F0000000000000000000000000000000000000
:0C01000000000000000000005FF808F1A3
:10010C0010B5054C237833B9044B13B10448AFF345
:10011C0000800123237010BD9C0000200000000013
:10012C00E848000808B5034B1BB103490348AFF37B
:10013C00008008BD00000000A0000020E848000876
:10014C0080B582B000AF00237B60A6E0574A7B6885
:10015C0013441978564A7B6813440A461A70554A58
:10016C007B6813441978514A7B6813440A461A7009
:10017C00514A7B6832F813301946504801F0C2FEE0
:10018C00034619464B4A7B6813440A461A707B682F
:10019C00012B0FDC484A7B6832F81330194647486C
:1001AC0001F0B0FE03461946424A7B6813440A46E6
:1001BC001A7021E07B68022B0FD13F4A7B6832F822
:1001CC00133019463E4801F09DFE03461946394A44
:1001DC007B6813440A461A700EE0374A7B6832F883
:1001EC0013301946354801F08DFE03461946314A45
:1001FC007B6813440A461A702E4A7B6813441A789B
:10020C002A497B680B441B789A4243D1274A7B6866
:10021C0013441A7826497B680B441B789A4239D1CF
:10022C00284A7B6813441A7821497B680B441B7855
:10023C009A4218D01E4A7B6813441978214A7B686D
:10024C0013440A461A701A4A7B6813441B78002B15
:10025C0020D11D4A7B68134401221A701B4B4FF4AA
:10026C0096721A6016E0124A7B6813441B78002BB6
:10027C0010D1164B1B68013B144A1360134B1B68BF
:10028C00002B07D1104A7B68134401221A700F4BC4
:10029C0064221A607B6801337B607B68032B7FF7D9
:1002AC0055AF00BF00BF0837BD4680BDC000002061
:1002BC00C4000020BC000020040000200008014005
:1002CC00000C0140B8000020CC00002000000020F1
:1002DC0080B500AF3F4B1B68012B58D13E4B1B68C0
:1002EC00002B54D13D4B1B68002B20D0012B48D147
:1002FC003B4B1B68012B46D13A4B1A683A4B1B6897
:10030C005A63384B1B683233364A1360354B1B68C3
:10031C0040F2E632934203DD324B40F2DD321A609A
:10032C002E4B00221A600A2001F0C2F82BE02C4B55
:10033C001B68012B29D1294B01221A602A4B1B68FF
:10034C0000225A63294B1B68642202FB03F2284BE0
:10035C001B689A4203DC012001F0AAF816E0244B3A
:10036C001B680433224A1360204B1B68642202FB77
:10037C0003F21F4B1B6892FBF3F3184601F098F83D
:10038C0003E000BF23E000BF21E000BF1FE0114BE2
:10039C001B68012B0FD1104B1B68002B0BD0114B82
:1003AC0063221A60114B1B68114A13600E4B1B68B9
:1003BC0000225A630BE00B4B63221A600B4B1B6839
:1003CC000B4A1360084B1B6800225A6300BF00BF26
:1003DC0080BD00BFD4000020D0000020D800002039
:1003EC00F800002010000020100100201800002050
:1003FC001400002080B500AF884B1B68092B00F25D
:10040C00A18001A252F823F03D04000899040008D1
:10041C00F50400086D040008C9040008250500084F
:10042C005105000855040008B10400080D0500082A
:10043C0001224FF480617A4801F07BFD00220821F3
:10044C00784801F076FD88E001224FF48061744811
:10045C0001F06FFD00220821724801F06AFD7CE07A
:10046C0001224FF480616E4801F063FD00220821E7
:10047C006C4801F05EFD012220216A4801F059FD13
:10048C0000221021674801F054FD66E000224FF471
:10049C008061634801F04DFD01220821614801F0A3
:1004AC0048FD5AE000224FF480615D4801F041FDA7
:1004BC00012208215B4801F03CFD4EE000224FF484
:1004CC008061574801F035FD01220821554801F0A3
:1004DC0030FD00222021534801F02BFD0122102178
:1004EC00504801F026FD38E001224FF480614C4861
:1004FC0001F01FFD012208214A4801F01AFD2CE0F1
:10050C0001224FF48061464801F013FD01220821BD
:10051C00444801F00EFD20E001224FF48061404878
:10052C0001F007FD012208213E4801F002FD0122E5
:10053C0020213C4801F0FDFC01221021394801F03A
:10054C00F8FC0AE000224FF48061354801F0F1FC20
:10055C0000220821334801F0ECFC334B1B68092BBB
:10056C0058D801A252F823F09D050008C9050008CF
:10057C00F5050008210600082106000821060008E0
:10058C0021060008B3050008DF0500080B0600086B
:10059C0001222021234801F0CCFC0022102121480B
:1005AC0001F0C7FC37E0012220211E4801F0C1FCFC
:1005BC00002210211B4801F0BCFC2CE00022202161
:1005CC00184801F0B6FC01221021164801F0B1FCCC
:1005DC0021E000222021134801F0ABFC0122102164
:1005EC00104801F0A6FC16E0012220210D4801F074
:1005FC00A0FC012210210B4801F09BFC0BE0012216
:10060C002021084801F095FC01221021054801F039
:10061C0090FC00E000BF00BF80BD00BFD0000020F8
:10062C0000080140000C01400C00002080B500AF18
:10063C00374B1B68002B02D0012B21D065E0002228
:10064C004FF48061334801F074FC00224FF4807148
:10065C00314801F06EFC314BDB78002B54D02F4B22
:10066C000022DA702A4B01221A602D4B01221A60EB
:10067C00012000F01DFF4FF4FA6000F005FF43E08D
:10068C00284B1B68012B03D1214B00221A603CE044
:10069C00224BDB78002B03D04FF4FA6000F0F4FE11
:1006AC00214B1B68022B20D0022B2BDC002B02D001
:1006BC00012B0DD026E001224FF48061154801F08A
:1006CC0038FC00224FF48071134801F032FC1AE020
:1006DC0000224FF480610F4801F02BFC01224FF4F3
:1006EC0080710D4801F025FC0DE001224FF4806172
:1006FC00084801F01EFC01224FF48071064801F0FD
:10070C0018FC00E000BF00E000BF00BF80BD00BFD0
:10071C00D4000020000C014000080140CC00002057
:10072C00D8000020F00000200C00002080B483B022
:10073C0000AF00237B6007E0084A7B68134400226B
:10074C001A707B6801337B607B68032BF4DD00BF80
:10075C0000BF0C37BD4680BC704700BFCC000020EA
:10076C0080B400AF074B1B680133064A1360054B7E
:10077C001B68632B02DD034B01221A6000BFBD46D0
:10078C0080BC7047FC00002080B500AFA04B1B68FC
:10079C00092B00F25A8201A252F823F0D10700086B
:1007AC0057080008DD08000863090008F309000871
:1007BC00AD0A0008570C0008490B0008A30B0008F1
:1007CC00FD0B0008934B1B68012B14D1924B1B683B
:1007DC00013B914A1360904B1B68002B06D18C4B4C
:1007EC0001221A608D4B1B688B4A136000F0F2FEDD
:1007FC00642000F021FE8A4B1B78002B14D0884B10
:10080C0000221A70874B1B68874A1360804B0322A7
:10081C001A60864B06221A6000F0DCFE4FF47A70E8
:10082C0000F00AFEFFF782FF7D4B5B78002B00F097
:10083C000E827B4B00225A70754B07221A607B4B41
:10084C0008221A60FFF772FF01E2724B1B68012B42
:10085C0014D1714B1B68013B6F4A13606E4B1B68C4
:10086C00002B06D16A4B02221A60714B1B686A4A34
:10087C00136000F0AFFE642000F0DEFD684B1B78C7
:10088C00002B14D0664B00221A70664B1B68664A0C
:10089C0013605F4B03221A60644B06221A6000F04F
:1008AC0099FE4FF47A7000F0C7FDFFF73FFF5C4BE9
:1008BC005B78002B00F0CD81594B00225A70544BC1
:1008CC0007221A60594B08221A60FFF72FFFC0E16C
:1008DC00504B1B68012B14D14F4B1B68013B4E4AEC
:1008EC0013604D4B1B68002B06D1494B00221A603C
:1008FC004C4B1B68484A136000F06CFE642000F0FF
:10090C009BFD474B1B78002B14D0454B00221A70D3
:10091C00444B1B68444A13603D4B03221A60434B03
:10092C0006221A6000F056FE4FF47A7000F084FD37
:10093C00FFF7FCFE3A4B5B78002B00F08C81384BB8
:10094C0000225A70324B07221A60384B08221A6068
:10095C00FFF7ECFE7FE12F4B1B68012B0FD12C4BCB
:10096C0000221A602F4B1B682B4A1360314B01225B
:10097C001A6000F02FFE642000F05EFD78E1284B39
:10098C001B78002B0FD0264B00221A70234B1B68B0
:10099C00254A13601E4B04221A6000F01BFE4FF414
:1009AC007A7000F049FD1E4B5B78002B0AD01C4B73
:1009BC0000225A70FFF7D4FE00F00CFE4FF47A7050
:1009CC0000F03AFD164B9B78002B00F04681144B3F
:1009DC0000229A70144B1B68124A13604FF47A7001
:1009EC0000F02AFD39E10B4B1B68012B24D1084B7D
:1009FC0000221A600F4B01221A600A4B1B68064A30
:100A0C00136000F0E7FD642000F016FD30E100BF3C
:100A1C00D0000020E0000020240000201C0000205A
:100A2C00CC00002018000020FC0000200C0000204E
:100A3C0020000020C80000208E4B1B78002B0FD00C
:100A4C008C4B00221A708C4B1B688C4A13608C4B9D
:100A5C0005221A6000F0BEFD4FF47A7000F0ECFC39
:100A6C00844B5B78002B0AD0824B00225A70FFF724
:100A7C0077FE00F0AFFD4FF47A7000F0DDFC7D4B9B
:100A8C009B78002B00F0EB807A4B00229A707B4B0A
:100A9C001B687C4A13604FF47A7000F0CDFCDEE0EA
:100AAC00794B1B68012B0FD1754B00221A60774BC9
:100ABC0001221A60764B1B68764A136000F08AFD9F
:100ACC00642000F0B9FCD3E06A4B1B78002B15D0E6
:100ADC00684B00221A706E4B1B68684A13606C4B93
:100AEC001B686C4A1360694B01221A60644B00222C
:100AFC001A6000F06FFD642000F09EFC5D4B5B788B
:100B0C00002B0AD05B4B00225A70FFF729FE00F035
:100B1C0061FD4FF47A7000F08FFC564B9B78002BE4
:100B2C0000F09F80534B00229A70544B1B68524A22
:100B3C0013604FF47A7000F07FFC92E04D4B5B78C1
:100B4C00002B0CD000F046FD4A4B00225A704C4B47
:100B5C0008221A60504B07221A60FFF7E7FD454B3D
:100B6C001B78002B7FD0434B00221A70484B1B681C
:100B7C00424A1360464B1B68464A1360434B0122A2
:100B8C001A603F4B00221A60434B06221A60642005
:100B9C0000F052FC67E0374B5B78002B0CD000F078
:100BAC0019FD344B00225A70354B09221A603A4B0E
:100BBC0009221A60FFF7BAFD2E4B1B78002B54D07C
:100BCC002C4B00221A70324B1B682C4A1360304B92
:100BDC001B68304A13602D4B01221A60284B0022EF
:100BEC001A602D4B06221A60642000F025FC3CE0B4
:100BFC00204B5B78002B0CD000F0ECFC1D4B002242
:100C0C005A701F4B07221A60234B08221A60FFF7F9
:100C1C008DFD184B1B78002B29D0164B00221A7017
:100C2C001B4B1B68154A1360194B1B68194A136040
:100C3C00164B01221A60124B00221A60164B062228
:100C4C001A60642000F0F8FB11E000BF10E000BF58
:100C5C000EE000BF0CE000BF0AE000BF08E000BFE0
:100C6C0006E000BF04E000BF02E000BF00E000BFF0
:100C7C0000BF80BDCC00002020000020FC00002024
:100C8C00D00000201C000020E0000020C800002044
:100C9C0018000020240000200C00002080B500AFBC
:100CAC003D4B1B68062B6BD801A252F823F000BFFA
:100CBC00D90C0008090D0008390D00088D0D00082D
:100CCC008D0D00088D0D0008690D0008334B1B6855
:100CDC00012B57D1324B1B68013B314A1360304B0F
:100CEC001B68002B06D12C4B01221A602D4B1B6864
:100CFC002B4A1360642000F0B3FB43E0274B1B68C6
:100D0C00012B41D1264B1B68013B254A1360244B18
:100D1C001B68002B06D1204B02221A60224B1B6849
:100D2C001F4A1360642000F09BFB2DE01B4B1B68DB
:100D3C00012B2BD11A4B1B68013B194A1360184B22
:100D4C001B68002B06D1144B00221A60174B1B6832
:100D5C00134A1360642000F083FB17E0144B1B68EC
:100D6C00012B15D1124B00221A600B4B01221A6079
:100D7C000C4B1B680A4A1360642000F071FB07E0FF
:100D8C0000BF06E000BF04E000BF02E000BF00E0CF
:100D9C0000BF00BF80BD00BF0C000020E800002099
:100DAC00280000201C00002020000020180000203B
:100DBC00C800002080B500AF00F000FD00F028F85E
:100DCC0000F054F900F066F800F026F900F0AEF8E7
:100DDC000D4801F031FD00210C4801F0D7FD6420D5
:100DEC0000F02AFB642000F03BFB642000F074FB55
:100DFC00FFF7CAFCFFF752FFFFF718FCFFF7FAFAF0
:100E0C00FFF766FAF4E700BF58010020100100203C
:100E1C0080B590B000AF07F11803282200211846C6
:100E2C0003F01AF93B1D00221A605A609A60DA60CE
:100E3C001A610223BB610123BB621023FB620223F4
:100E4C007B630023BB634FF46013FB6307F1180350
:100E5C00184601F087F80346002B01D000F080F90A
:100E6C000F237B600223BB600023FB604FF4806385
:100E7C003B6100237B613B1D0221184601F0F2FA15
:100E8C000346002B01D000F06BF900BF4037BD4684
:100E9C0080BD000080B586B000AF07F108030022CA
:100EAC001A605A609A60DA603B4600221A605A60F7
:100EBC001D4B4FF080421A601B4B42F20F725A606E
:100ECC00194B00229A60184B3F22DA60164B002215
:100EDC001A61154B00229A61134801F05DFC034620
:100EEC00002B01D000F03CF94FF48053BB6007F1AC
:100EFC00080319460C4801F0B1FF0346002B01D042
:100F0C0000F02EF900233B6000237B603B46194622
:100F1C00054802F02FFB0346002B01D000F020F90E
:100F2C0000BF1837BD4680BD5801002080B58EB07B
:100F3C0000AF07F1280300221A605A609A60DA6049
:100F4C0007F1200300221A605A603B1D00221A6030
:100F5C005A609A60DA601A615A619A612C4B2D4A78
:100F6C001A602B4B3F225A60294B00229A60284B67
:100F7C0040F2E732DA60264B00221A61244B002241
:100F8C009A61234801F008FC0346002B01D000F0C5
:100F9C00E7F84FF48053BB6207F1280319461C484D
:100FAC0001F05CFF0346002B01D000F0D9F8184883
:100FBC0001F094FC0346002B01D000F0D1F8002383
:100FCC003B6200237B6207F120031946104802F0B4
:100FDC00D1FA0346002B01D000F0C2F860237B60ED
:100FEC00C723BB600023FB6000237B613B1D0022F9
:100FFC001946074801F074FE0346002B01D000F09F
:10100C00AFF8034800F01CF900BF3837BD4680BD6F
:10101C00100100200004004080B500AF114B124AB3
:10102C001A60104B4FF416525A600E4B00229A6005
:10103C000C4B0022DA600B4B00221A61094B0C227C
:10104C005A61084B00229A61064B0022DA6105486E
:10105C0002F000FB0346002B01D000F081F800BF2A
:10106C0080BD00BFA00100200044004080B586B0C8
:10107C0000AF07F1080300221A605A609A60DA6028
:10108C002E4B9B692D4A43F0040393612B4B9B69B8
:10109C0003F004037B607B68284B9B69274A43F071
:1010AC0008039361254B9B6903F008033B603B6885
:1010BC0000224FF48761224800F03BFF00224FF4DE
:1010CC00A061204800F035FF1323BB600023FB60B8
:1010DC0001233B6107F1080319461A4800F08EFD05
:1010EC000123BB600023FB6001233B6107F1080374
:1010FC001946134800F082FD4FF48763BB6001234F
:10110C00FB6000233B6102237B6107F10803194656
:10111C000B4800F073FD4FF4A063BB600123FB6030
:10112C0000233B6102237B6107F108031946054844
:10113C0000F064FD00BF1837BD4680BD00100240B2
:10114C00000C01400008014080B582B000AF78600F
:10115C0000F0D6F9FEF7F4FF00BF0837BD4680BD9E
:10116C0080B400AF72B600BFFEE7000080B485B05B
:10117C0000AF154B9B69144A43F001039361124B6A
:10118C009B6903F00103BB60BB680F4BDB690E4A24
:10119C0043F08053D3610C4BDB6903F080537B60CD
:1011AC007B680A4B5B68FB60FB6823F0E063FB60C9
:1011BC00FB6843F00073FB60044AFB68536000BF9C
:1011CC001437BD4680BC704700100240000001403F
:1011DC0080B584B000AF78607B681B68B3F1804F3A
:1011EC0014D1154BDB69144A43F00103D361124B44
:1011FC00DB6903F00103FB60FB68002200211C206B
:10120C0000F015FC1C2000F02EFC10E07B681B6825
:10121C000A4A93420BD1084BDB69074A43F002039D
:10122C00D361054BDB6903F00203BB60BB6800BFF5
:10123C001037BD4680BD00BF0010024000040040C6
:10124C0080B588B000AF786007F1100300221A60F7
:10125C005A609A60DA607B681B680F4A934217D118
:10126C000E4B9B690D4A43F0040393610B4B9B6936
:10127C0003F00403FB60FB6840233B6102237B61AA
:10128C000223FB6107F110031946054800F0B6FC78
:10129C0000BF2037BD4680BD000400400010024056
:1012AC000008014080B588B000AF786007F11003EA
:1012BC0000221A605A609A60DA607B681B681F4AC9
:1012CC00934237D11E4BDB691D4A43F40033D36183
:1012DC001B4BDB6903F40033FB60FB68184B9B6909
:1012EC00174A43F004039361154B9B6903F0040305
:1012FC00BB60BB6804233B6102237B610323FB615E
:10130C0007F1100319460F4800F078FC08233B61E5
:10131C0000237B610023BB6107F1100319460948C8
:10132C0000F06CFC00220021262000F080FB26201F
:10133C0000F099FB00BF2037BD4680BD0044004043
:10134C00001002400008014080B400AFFEE780B4FA
:10135C0000AFFEE780B400AFFEE780B400AFFEE75D
:10136C0080B400AFFEE780B400AF00BFBD4680BCC8
:10137C00704780B400AF00BFBD4680BC704780B4DE
:10138C0000AF00BFBD4680BC704780B500AF00F019
:10139C005BFA00BF80BD000080B500AF024801F0D1
:1013AC0097FB00BF80BD00BF5801002080B500AF87
:1013BC00024802F02FFA00BF80BD00BFA001002040
:1013CC0080B586B000AF7860144A154BD31A7B6198
:1013DC007B693B61134B1B68002B02D1114B124AEA
:1013EC001A60104B1A687B6813443A699A4207D208
:1013FC0002F008FE03460C221A604FF0FF3309E09E
:10140C00084B1B68FB60074B1A687B681344054A42
:10141C001360FB6818461837BD4680BD005000208D
:10142C0000040000000100202002002080B400AF66
:10143C0000BFBD4680BC704780B483B000AF7860FD
:10144C00054A7B681360054B00221A6000BF0C37FD
:10145C00BD4680BC704700BFDC000020E0000020CF
:10146C0080B483B000AF7860054A7B681360054B8D
:10147C0000221A6000BF0C37BD4680BC704700BF0D
:10148C00E4000020E800002080B483B000AF786056
:10149C00054A7B681360054B00221A6000BF0C37AD
:1014AC00BD4680BC704700BFEC000020F00000205F
:1014BC0080B483B000AF7860054A7B681360054B3D
:1014CC0000221A6000BF0C37BD4680BC704700BFBD
:1014DC00F4000020F800002080B483B000AF7860E6
:1014EC00054A7B681360054B00221A6000BF0C375D
:1014FC00BD4680BC704700BF0C010020E4010020F9
:10150C0080B400AF294B1B68002B0BDD274B1B68ED
:10151C00013B264A1360254B1B68002B02DC244B35
:10152C0001221A60234B1B68002B0BDD214B1B681F
:10153C00013B204A13601F4B1B68002B02DC1E4B27
:10154C0001221A601D4B1B68002B0BDD1B4B1B680B
:10155C00013B1A4A1360194B1B68002B02DC184B19
:10156C0001221A60174B1B68002B0BDD154B1B68F7
:10157C00013B144A1360134B1B68002B02DC124B0B
:10158C0001221A60114B1B68002B0BDD0F4B1B68E3
:10159C00013B0E4A13600D4B1B68002B02DC0C4BFD
:1015AC0001221A6000BFBD4680BC7047DC000020E1
:1015BC00E0000020E4000020E8000020EC00002007
:1015CC00F0000020F4000020F80000200C010020A6
:1015DC00E401002080B500AF574B1B68092B00F2CB
:1015EC00A78001A252F823F01D1600083D16000832
:1015FC005D160008DD160008FD1600081D17000812
:10160C003D1700087D1600089D160008BD16000841
:10161C004A4B1B681A464A494A4802F025FD0346C4
:10162C009AB24FF47A734749474802F060F880E069
:10163C00424B1B681A464549424802F015FD0346C9
:10164C009AB24FF47A733F493F4802F050F870E079
:10165C003A4B1B681A463E493A4802F005FD0346D0
:10166C009AB24FF47A733749374802F040F860E089
:10167C00324B1B681A463749324802F0F5FC0346D8
:10168C009AB24FF47A732F492F4802F030F850E099
:10169C002A4B1B681A4630492A4802F0E5FC0346DF
:1016AC009AB24FF47A732749274802F020F840E0A9
:1016BC00224B1B681A462949224802F0D5FC0346E6
:1016CC009AB24FF47A731F491F4802F010F830E0B9
:1016DC00234B1B681A4623491A4802F0C5FC0346E3
:1016EC009AB24FF47A731749174802F000F820E0C9
:1016FC001B4B1B681A461C49124802F0B5FC0346EA
:10170C009AB24FF47A730F490F4801F0F0FF10E0D2
:10171C00134B1B681A4615490A4802F0A5FC0346F0
:10172C009AB24FF47A730749074801F0E0FF00E0E2
:10173C0000BF00BF80BD00BFD000002024000020EF
:10174C0000490008E8010020A00100200C49000815
:10175C001C4900082849000834490008444900087D
:10176C00FC000020504900085C4900086C49000846
:10177C000C480D490D4A002302E0D458C4500433E0
:10178C00C4188C42F9D30A4A0A4C002301E01360B6
:10179C000432A242FBD3FFF749FE02F039FCFFF7FB
:1017AC0009FB7047000000209C000020DC49000869
:1017BC009C0000201C020020FEE7000080B500AF5A
:1017CC00084B1B68074A43F010031360032000F01A
:1017DC0023F90F2000F008F8FFF7C8FC0023184687
:1017EC0080BD00BF0020024080B582B000AF7860A1
:1017FC00124B1A68124B1B7819464FF47A73B3FBD1
:10180C00F1F3B2FBF3F3184600F03BF90346002B5F
:10181C0001D001230EE07B680F2B0AD800227968D7
:10182C004FF0FF3000F003F9064A7B681360002389
:10183C0000E0012318460837BD4680BD2C0000206F
:10184C00340000203000002080B400AF054B1B7822
:10185C001A46054B1B681344034A136000BFBD4670
:10186C0080BC7047340000200802002080B400AF18
:10187C00024B1B681846BD4680BC7047080200200E
:10188C0080B485B000AF78607B6803F00703FB6021
:10189C000C4BDB68BB60BA684FF6FF031340BB60B0
:1018AC00FB681A02BB68134343F0BF6343F4003375
:1018BC00BB60044ABB68D36000BF1437BD4680BC14
:1018CC00704700BF00ED00E080B400AF044BDB6854
:1018DC001B0A03F007031846BD4680BC704700BFC7
:1018EC0000ED00E080B483B000AF0346FB7197F9C4
:1018FC000730002B0BDBFB7903F01F02064997F92D
:10190C0007305B09012000FA02F241F8232000BFE6
:10191C000C37BD4680BC704700E100E080B483B05A
:10192C0000AF03463960FB7197F90730002B0ADBD7
:10193C003B68DAB20C4997F907301201D2B20B446A
:10194C0083F800230AE03B68DAB20849FB7903F01C
:10195C000F03043B1201D2B20B441A7600BF0C37B2
:10196C00BD4680BC704700BF00E100E000ED00E028
:10197C0080B489B000AFF860B9607A60FB6803F09E
:10198C000703FB61FB69C3F10703042B28BF042386
:10199C00BB61FB690433062B02D9FB69033B00E0F6
:1019AC0000237B614FF0FF32BB6902FA03F3DA4389
:1019BC00BB681A407B699A404FF0FF317B6901FA92
:1019CC0003F3D9437B680B40134318462437BD46B9
:1019DC0080BC704780B582B000AF78607B68013BFB
:1019EC00B3F1807F01D301230FE00A4A7B68013BEE
:1019FC0053600F214FF0FF30FFF790FF054B002293
:101A0C009A60044B07221A60002318460837BD461B
:101A1C0080BD00BF10E000E080B582B000AF786000
:101A2C007868FFF72DFF00BF0837BD4680BD80B535
:101A3C0086B000AF0346B9607A60FB7300237B610C
:101A4C00FFF742FF78617A68B9687869FFF790FF11
:101A5C00024697F90F3011461846FFF75FFF00BF9B
:101A6C001837BD4680BD80B582B000AF0346FB7110
:101A7C0097F907301846FFF735FF00BF0837BD460A
:101A8C0080BD80B582B000AF78607868FFF7A2FFA8
:101A9C00034618460837BD4680BD80B485B000AFFC
:101AAC0078600023FB737B6893F82130022B08D0FD
:101ABC007B6804229A637B68002283F82020012330
:101ACC0020E07B681B681A687B681B6822F00E029A
:101ADC001A607B681B681A687B681B6822F001021D
:101AEC001A607B681A6C7B68DB6B012101FA02F2CD
:101AFC005A607B68012283F821207B68002283F8DE
:101B0C002020FB7B18461437BD4680BC7047000074
:101B1C0080B584B000AF78600023FB737B6893F8CA
:101B2C002130022B05D07B6804229A630123FB73BE
:101B3C0051E07B681B681A687B681B6822F00E02F8
:101B4C001A607B681B681A687B681B6822F00102AC
:101B5C001A607B681B68224A934229D07B681B68F9
:101B6C00204A934222D07B681B681F4A93421AD0AA
:101B7C007B681B681D4A934212D07B681B681C4A09
:101B8C0093420AD07B681B681A4A934202D14FF4E5
:101B9C0080130EE04FF080730BE04FF4803308E0BD
:101BAC004FF4805305E04FF4807302E0102300E003
:101BBC000123114A53607B68012283F821207B6842
:101BCC00002283F820207B685B6B002B03D07B68A2
:101BDC005B6B78689847FB7B18461037BD4680BD19
:101BEC00080002401C000240300002404400024049
:101BFC00580002406C0002400000024080B48BB0E0
:101C0C0000AF7860396000237B6200233B6269E19E
:101C1C0001227B6A02FA03F3FB613B681B68FA69D9
:101C2C001340BB61BA69FB699A4240F058813B682A
:101C3C005B689A4A93425ED0984A934275D8984A08
:101C4C00934258D0964A93426FD8964A934252D0B8
:101C5C00944A934269D8944A93424CD0924A934204
:101C6C0063D8924A934246D0904A93425DD8122B45
:101C7C002AD8122B59D801A252F823F0031D0008C0
:101C8C00DD1C0008EF1C0008311D0008371D000882
:101C9C00371D0008371D0008371D0008371D0008C8
:101CAC00371D0008371D0008371D0008371D0008B8
:101CBC00371D0008371D0008371D0008371D0008A8
:101CCC00E51C0008F91C0008794A934213D02CE05B
:101CDC003B68DB683B6229E03B68DB6804333B62B2
:101CEC0024E03B68DB6808333B621FE03B68DB6841
:101CFC000C333B621AE03B689B68002B02D1042337
:101D0C003B6213E03B689B68012B05D108233B62C7
:101D1C007B68FA691A6109E008233B627B68FA69FF
:101D2C005A6103E000233B6200E000BFBB69FF2B5C
:101D3C0001D87B6801E07B6804337B61BB69FF2BB6
:101D4C0002D87B6A9B0002E07B6A083B9B003B61EC
:101D5C007B691A680F213B6901FA03F3DB431A40D4
:101D6C00396A3B6901FA03F31A437B691A603B68D1
:101D7C005B6803F08053002B00F0B1804D4B9B69E6
:101D8C004C4A43F0010393614A4B9B6903F00103F6
:101D9C00BB60BB68484A7B6A9B08023352F823300D
:101DAC00FB607B6A03F003039B000F2202FA03F330
:101DBC00DB43FA681340FB607B68404A934213D0C4
:101DCC007B683F4A93420DD07B683E4A934207D0D2
:101DDC007B683D4A934201D1032306E0042304E0CF
:101DEC00022302E0012300E000237A6A02F00302DE
:101DFC0092009340FA681343FB602F497B6A9B085F
:101E0C000233FA6841F823203B685B6803F48033A3
:101E1C00002B06D02D4B1A682C49BB6913430B6061
:101E2C0006E02A4B1A68BB69DB43284913400B6058
:101E3C003B685B6803F40033002B06D0234B5A68D5
:101E4C002249BB6913434B6006E0204B5A68BB69BF
:101E5C00DB431E4913404B603B685B6803F4801303
:101E6C00002B06D0194B9A681849BB6913438B6039
:101E7C0006E0164B9A68BB69DB43144913408B6030
:101E8C003B685B6803F40013002B21D00F4BDA681E
:101E9C000E49BB691343CB6021E000BF0000321038
:101EAC000000311000002210000021100000121060
:101EBC000000111000100240000001400008014019
:101ECC00000C0140001001400014014000040140CE
:101EDC000B4BDA68BB69DB4309491340CB607B6A67
:101EEC0001337B623B681A687B6A22FA03F3002B8E
:101EFC007FF48EAE00BF00BF2C37BD4680BC704750
:101F0C000004014080B485B000AF78600B467B8044
:101F1C007B689A687B881340002B02D00123FB73EB
:101F2C0001E00023FB73FB7B18461437BD4680BCD5
:101F3C00704780B483B000AF78600B467B8013464B
:101F4C007B707B78002B03D07A887B681A6103E066
:101F5C007B881A047B681A6100BF0C37BD4680BCB5
:101F6C007047000080B586B000AF78607B68002BAE
:101F7C0001D101236CE27B681B6803F00103002B89
:101F8C0000F08780924B5B6803F00C03042B0CD0A1
:101F9C008F4B5B6803F00C03082B12D18C4B5B68E6
:101FAC0003F48033B3F5803F0BD1894B1B6803F4EA
:101FBC000033002B6CD07B685B68002B68D101234D
:101FCC0046E27B685B68B3F5803F06D1804B1B68AB
:101FDC007F4A43F4803313602EE07B685B68002BF0
:101FEC000CD17B4B1B687A4A23F480331360784BFB
:101FFC001B68774A23F4802313601DE07B685B68C1
:10200C00B3F5A02F0CD1724B1B68714A43F480239B
:10201C0013606F4B1B686E4A43F4803313600BE004
:10202C006B4B1B686A4A23F480331360684B1B6844
:10203C00674A23F4802313607B685B68002B13D002
:10204C00FFF714FC386108E0FFF710FC02463B690F
:10205C00D31A642B01D90323FAE15D4B1B6803F4FB
:10206C000033002BF0D014E0FFF700FC386108E0DF
:10207C00FFF7FCFB02463B69D31A642B01D90323FF
:10208C00E6E1534B1B6803F40033002BF0D100E066
:10209C0000BF7B681B6803F00203002B63D04C4B22
:1020AC005B6803F00C03002B0BD0494B5B6803F00F
:1020BC000C03082B1CD1464B5B6803F48033002BBC
:1020CC0016D1434B1B6803F00203002B05D07B6831
:1020DC001B69012B01D00123BAE13D4B1B6823F096
:1020EC00F8027B685B69DB00394913430B603AE00B
:1020FC007B681B69002B20D0364B01221A60FFF73E
:10210C00B5FB386108E0FFF7B1FB02463B69D31A17
:10211C00022B01D903239BE12D4B1B6803F0020317
:10212C00002BF0D02A4B1B6823F0F8027B685B690C
:10213C00DB00274913430B6015E0264B00221A6085
:10214C00FFF794FB386108E0FFF790FB02463B6910
:10215C00D31A022B01D903237AE11D4B1B6803F020
:10216C000203002BF0D17B681B6803F00803002BE3
:10217C003AD07B689B69002B19D0174B01221A604F
:10218C00FFF774FB386108E0FFF770FB02463B6910
:10219C00D31A022B01D903235AE10D4B5B6A03F0CE
:1021AC000203002BF0D0012000F0D8FA1CE00A4BFF
:1021BC0000221A60FFF75AFB38610FE0FFF756FB5D
:1021CC0002463B69D31A022B08D9032340E100BF16
:1021DC000010024000004242800442429E4B5B6A67
:1021EC0003F00203002BE9D17B681B6803F00403A6
:1021FC00002B00F0A6800023FB75974BDB6903F0E6
:10220C008053002B0DD1944BDB69934A43F08053E0
:10221C00D361914BDB6903F08053BB60BB68012336
:10222C00FB758E4B1B6803F48073002B18D18B4B02
:10223C001B688A4A43F480731360FFF717FB3861FD
:10224C0008E0FFF713FB02463B69D31A642B01D954
:10225C000323FDE0814B1B6803F48073002BF0D04B
:10226C007B68DB68012B06D17B4B1B6A7A4A43F0F7
:10227C00010313622DE07B68DB68002B0CD1764BDD
:10228C001B6A754A23F001031362734B1B6A724A73
:10229C0023F0040313621CE07B68DB68052B0CD174
:1022AC006D4B1B6A6C4A43F0040313626A4B1B6A46
:1022BC00694A43F0010313620BE0674B1B6A664AE1
:1022CC0023F001031362644B1B6A634A23F004037B
:1022DC0013627B68DB68002B15D0FFF7C7FA3861F7
:1022EC000AE0FFF7C3FA02463B69D31A41F288327F
:1022FC00934201D90323ABE0574B1B6A03F0020353
:10230C00002BEED014E0FFF7B1FA38610AE0FFF7CA
:10231C00ADFA02463B69D31A41F28832934201D995
:10232C00032395E04C4B1B6A03F00203002BEED108
:10233C00FB7D012B05D1484BDB69474A23F08053C9
:10234C00D3617B68DB69002B00F08180424B5B68BA
:10235C0003F00C03082B61D07B68DB69022B46D1A0
:10236C003F4B00221A60FFF781FA386108E0FFF753
:10237C007DFA02463B69D31A022B01D9032367E08D
:10238C00354B1B6803F00073002BF0D17B681B6A84
:10239C00B3F5803F08D1304B5B6823F400327B6887
:1023AC009B682D4913434B602B4B5B6823F47412D1
:1023BC007B68196A7B685B6A0B43274913434B6044
:1023CC00274B01221A60FFF751FA386108E0FFF73A
:1023DC004DFA02463B69D31A022B01D9032337E08D
:1023EC001D4B1B6803F00073002BF0D02FE01C4B2F
:1023FC0000221A60FFF73AFA386108E0FFF736FA64
:10240C0002463B69D31A022B01D9032320E0124B5D
:10241C001B6803F00073002BF0D118E07B68DB69BC
:10242C00012B01D1012313E00B4B5B68FB60FB68B4
:10243C0003F480327B681B6A9A4206D1FB6803F472
:10244C0070127B685B6A9A4201D0012300E0002382
:10245C0018461837BD4680BD001002400070004081
:10246C006000424280B584B000AF786039607B6810
:10247C00002B01D10123D0E06A4B1B6803F007034A
:10248C003A689A4210D9674B1B6823F007026549DA
:10249C003B6813430B60634B1B6803F007033A68FC
:1024AC009A4201D00123B8E07B681B6803F0020359
:1024BC00002B20D07B681B6803F00403002B05D095
:1024CC00594B5B68584A43F4E06353607B681B6864
:1024DC0003F00803002B05D0534B5B68524A43F4BE
:1024EC0060535360504B5B6823F0F0027B689B6831
:1024FC004D4913434B607B681B6803F00103002BB1
:10250C0040D07B685B68012B07D1474B1B6803F4F9
:10251C000033002B15D101237FE07B685B68022B15
:10252C0007D1414B1B6803F00073002B09D1012329
:10253C0073E03D4B1B6803F00203002B01D1012318
:10254C006BE0394B5B6823F003027B685B683649B0
:10255C0013434B60FFF78AF9F8600AE0FFF786F93E
:10256C000246FB68D31A41F28832934201D9032305
:10257C0053E02D4B5B6803F00C027B685B689B009F
:10258C009A42EBD1274B1B6803F007033A689A4237
:10259C0010D2244B1B6823F0070222493B681343DB
:1025AC000B60204B1B6803F007033A689A4201D07A
:1025BC00012332E07B681B6803F00403002B08D076
:1025CC00194B5B6823F4E0627B68DB6816491343A4
:1025DC004B607B681B6803F00803002B09D0124B7F
:1025EC005B6823F460527B681B69DB000E49134364
:1025FC004B6000F021F802460B4B5B681B0903F0A3
:10260C000F030A49CB5C22FA03F3094A1360094B06
:10261C001B681846FFF7E8F8002318461037BD462C
:10262C0080BD00BF00200240001002408849000815
:10263C002C0000203000002090B48AB000AF2A4B50
:10264C003C1D0FCB84E80F0040F201233B8000239C
:10265C00FB610023BB6100237B6200237B610023B1
:10266C003B62224B5B68FB61FB6903F00C03042BA0
:10267C0002D0082B03D02DE01D4B3B622DE0FB69F3
:10268C009B0C03F00F0307F12802134413F8243CAE
:10269C007B61FB6903F48033002B13D0134B5B6815
:1026AC005B0C03F0010307F12802134413F8283CD8
:1026BC00BB617B690E4A02FB03F2BB69B2FBF3F30D
:1026CC007B6204E07B690B4A02FB03F37B627B6A4F
:1026DC003B6202E0064B3B6200BF3B6A1846283760
:1026EC00BD4690BC704700BF7849000800100240FE
:1026FC0000127A0000093D0080B400AF024B1B6849
:10270C001846BD4680BC70472C00002080B500AF39
:10271C00FFF7F2FF0246054B5B681B0A03F0070349
:10272C000349CB5C22FA03F3184680BD001002402B
:10273C009849000880B500AFFFF7DEFF0246054B55
:10274C005B68DB0A03F007030349CB5C22FA03F353
:10275C00184680BD001002409849000880B485B02E
:10276C0000AF78600A4B1B680A4AA2FB03235B0A82
:10277C007A6802FB03F3FB6000BFFB685A1EFA6029
:10278C00002BF9D100BF00BF1437BD4680BC704789
:10279C002C000020D34D621080B582B000AF786061
:1027AC007B68002B01D1012341E07B6893F83D301D
:1027BC00DBB2002B06D17B68002283F83C207868C2
:1027CC00FEF706FD7B68022283F83D207B681A68C1
:1027DC007B6804331946104600F028FC7B68012204
:1027EC0083F846207B68012283F83E207B68012217
:1027FC0083F83F207B68012283F840207B6801220C
:10280C0083F841207B68012283F842207B680122F7
:10281C0083F843207B68012283F844207B680122E3
:10282C0083F845207B68012283F83D20002318465D
:10283C000837BD4680BD000080B485B000AF78601D
:10284C007B6893F83D30DBB2012B01D001233AE0D9
:10285C007B68022283F83D207B681B68DA687B6802
:10286C001B6842F00102DA607B681B68184A9342CD
:10287C000ED07B681B68B3F1804F09D07B681B6856
:10288C00144A934204D07B681B68134A934211D1BB
:10289C007B681B689B6803F00703FB60FB68062BD7
:1028AC0010D07B681B681A687B681B6842F00102B9
:1028BC001A6007E07B681B681A687B681B6842F02B
:1028CC0001021A60002318461437BD4680BC7047BD
:1028DC00002C0140000400400008004080B582B08C
:1028EC0000AF78607B68002B01D1012341E07B684D
:1028FC0093F83D30DBB2002B06D17B68002283F8C5
:10290C003C20786800F039F87B68022283F83D207F
:10291C007B681A687B6804331946104600F086FB06
:10292C007B68012283F846207B68012283F83E20D5
:10293C007B68012283F83F207B68012283F84020CA
:10294C007B68012283F841207B68012283F84220B6
:10295C007B68012283F843207B68012283F84420A2
:10296C007B68012283F845207B68012283F83D2097
:10297C00002318460837BD4680BD80B483B000AF35
:10298C00786000BF0C37BD4680BC704780B584B002
:10299C0000AF786039603B68002B09D17B6893F8F5
:1029AC003E30DBB2012B14BF01230023DBB222E04B
:1029BC003B68042B09D17B6893F83F30DBB2012BC9
:1029CC0014BF01230023DBB215E03B68082B09D1AF
:1029DC007B6893F84030DBB2012B14BF012300233A
:1029EC00DBB208E07B6893F84130DBB2012B14BFFB
:1029FC0001230023DBB2002B01D001235EE03B68F6
:102A0C00002B04D17B68022283F83E2013E03B6844
:102A1C00042B04D17B68022283F83F200BE03B6837
:102A2C00082B04D17B68022283F8402003E07B68EA
:102A3C00022283F841207B681B6801223968184602
:102A4C0000F074FD7B681B681E4A934207D17B68BB
:102A5C001B685A6C7B681B6842F400425A647B68A2
:102A6C001B68184A93420ED07B681B68B3F1804FE9
:102A7C0009D07B681B68144A934204D07B681B689E
:102A8C00124A934211D17B681B689B6803F00703C1
:102A9C00FB60FB68062B10D07B681B681A687B6890
:102AAC001B6842F001021A6007E07B681B681A6819
:102ABC007B681B6842F001021A600023184610372D
:102ACC00BD4680BD002C01400004004000080040C1
:102ADC0080B582B000AF78607B681B681B6903F01F
:102AEC000203022B22D17B681B68DB6803F0020314
:102AFC00022B1BD17B681B686FF002021A617B688A
:102B0C0001221A777B681B689B6903F00303002B77
:102B1C0003D0786800F06FFA05E0786800F062FA8C
:102B2C00786800F071FA7B6800221A777B681B6862
:102B3C001B6903F00403042B22D17B681B68DB6840
:102B4C0003F00403042B1BD17B681B686FF0040299
:102B5C001A617B6802221A777B681B689B6903F4F5
:102B6C004073002B03D0786800F045FA05E07868D4
:102B7C0000F038FA786800F047FA7B6800221A7780
:102B8C007B681B681B6903F00803082B22D17B6848
:102B9C001B68DB6803F00803082B1BD17B681B68E0
:102BAC006FF008021A617B6804221A777B681B6835
:102BBC00DB6903F00303002B03D0786800F01BFAE9
:102BCC0005E0786800F00EFA786800F01DFA7B6872
:102BDC0000221A777B681B681B6903F01003102B0B
:102BEC0022D17B681B68DB6803F01003102B1BD110
:102BFC007B681B686FF010021A617B6808221A77D9
:102C0C007B681B68DB6903F44073002B03D0786886
:102C1C0000F0F1F905E0786800F0E4F9786800F06C
:102C2C00F3F97B6800221A777B681B681B6903F039
:102C3C000103012B0ED17B681B68DB6803F00103D9
:102C4C00012B07D17B681B686FF001021A61786851
:102C5C00FEF77AFA7B681B681B6903F08003802BF4
:102C6C000ED17B681B68DB6803F08003802B07D1D7
:102C7C007B681B686FF080021A61786800F0E1FCD9
:102C8C007B681B681B6903F04003402B0ED17B68EB
:102C9C001B68DB6803F04003402B07D17B681B6883
:102CAC006FF040021A61786800F0B7F97B681B6816
:102CBC001B6903F02003202B0ED17B681B68DB689B
:102CCC0003F02003202B07D17B681B686FF02002D8
:102CDC001A61786800F0ACFC00BF0837BD4680BDB7
:102CEC0080B584B000AFF860B9607A60FB6893F887
:102CFC003C30012B01D10223ACE0FB68012283F8AC
:102D0C003C207B680C2B00F29F8001A252F823F030
:102D1C00512D0008552E0008552E0008552E000880
:102D2C00912D0008552E0008552E0008552E000830
:102D3C00D32D0008552E0008552E0008552E0008DE
:102D4C00132E0008FB681B68B968184600F0D0F910
:102D5C00FB681B689A69FB681B6842F008029A6161
:102D6C00FB681B689A69FB681B6822F004029A6175
:102D7C00FB681B689969BB681A69FB681B680A4386
:102D8C009A6162E0FB681B68B968184600F016FA95
:102D9C00FB681B689A69FB681B6842F400629A61C5
:102DAC00FB681B689A69FB681B6822F480629A6155
:102DBC00FB681B689969BB681B691A02FB681B6876
:102DCC000A439A6141E0FB681B68B968184600F039
:102DDC005FFAFB681B68DA69FB681B6842F0080243
:102DEC00DA61FB681B68DA69FB681B6822F0040275
:102DFC00DA61FB681B68D969BB681A69FB681B68D8
:102E0C000A43DA6121E0FB681B68B968184600F0D8
:102E1C00A9FAFB681B68DA69FB681B6842F400625C
:102E2C00DA61FB681B68DA69FB681B6822F4806254
:102E3C00DA61FB681B68D969BB681B691A02FB68FD
:102E4C001B680A43DA6100E000BFFB68002283F8CC
:102E5C003C20002318461037BD4680BD80B584B099
:102E6C0000AF786039607B6893F83C30012B01D15E
:102E7C000223B3E07B68012283F83C207B680222AA
:102E8C0083F83D207B681B689B68FB60FB6823F024
:102E9C007703FB60FB6823F47F43FB607B681B6854
:102EAC00FA689A603B681B68B3F5005F3ED0B3F5D7
:102EBC00005F00F28780B3F5805F00F08580B3F58A
:102ECC00805F7FD8702B1AD0702B7BD8602B50D0A2
:102EDC00602B77D8502B3CD0502B73D8402B58D02C
:102EEC00402B6FD8302B64D0302B6BD8202B60D07C
:102EFC00202B67D8002B5CD0102B5AD062E07B685B
:102F0C0018683B6899683B685A683B68DB6800F056
:102F1C00EEFA7B681B689B68FB60FB6843F07703E9
:102F2C00FB607B681B68FA689A604EE07B681868E7
:102F3C003B6899683B685A683B68DB6800F0D7FAD5
:102F4C007B681B689A687B681B6842F480429A60B5
:102F5C003BE07B6818683B6859683B68DB681A463D
:102F6C0000F04EFA7B681B685021184600F0A5FA59
:102F7C002BE07B6818683B6859683B68DB681A462D
:102F8C0000F06CFA7B681B686021184600F095FA1B
:102F9C001BE07B6818683B6859683B68DB681A461D
:102FAC0000F02EFA7B681B684021184600F085FA69
:102FBC000BE07B681A683B681B681946104600F0EA
:102FCC007CFA02E000BF00E000BF7B68012283F8BE
:102FDC003D207B68002283F83C20002318461037E4
:102FEC00BD4680BD80B483B000AF786000BF0C37A5
:102FFC00BD4680BC704780B483B000AF786000BF22
:10300C000C37BD4680BC704780B483B000AF78608D
:10301C0000BF0C37BD4680BC704780B483B000AF96
:10302C00786000BF0C37BD4680BC704780B485B05B
:10303C0000AF786039607B681B68FB607B68294A4D
:10304C0093420BD07B68B3F1804F07D07B68264A44
:10305C00934203D07B68254A934208D1FB6823F046
:10306C007003FB603B685B68FA681343FB607B682A
:10307C001C4A93420BD07B68B3F1804F07D07B681E
:10308C00194A934203D07B68184A934208D1FB68D3
:10309C0023F44073FB603B68DB68FA681343FB6006
:1030AC00FB6823F080023B685B691343FB607B6821
:1030BC00FA681A603B689A687B68DA623B681A683F
:1030CC007B689A627B68074A934203D13B681A6912
:1030DC007B681A637B6801225A6100BF1437BD46B6
:1030EC0080BC7047002C01400004004000080040E8
:1030FC0080B487B000AF786039607B681B6A23F0BE
:10310C0001027B681A627B681B6A7B617B685B6867
:10311C003B617B689B69FB60FB6823F07003FB6081
:10312C00FB6823F00303FB603B681B68FA681343DE
:10313C00FB607B6923F002037B613B689B687A69C7
:10314C0013437B617B681C4A93420CD17B6923F04F
:10315C0008037B613B68DB687A6913437B617B699D
:10316C0023F004037B617B68134A934211D13B69C2
:10317C0023F480733B613B6923F400733B613B6830
:10318C005B693A6913433B613B689B693A6913433A
:10319C003B617B683A695A607B68FA689A613B6864
:1031AC005A687B685A637B687A691A6200BF1C375D
:1031BC00BD4680BC704700BF002C014080B487B076
:1031CC0000AF786039607B681B6A23F010027B6863
:1031DC001A627B681B6A7B617B685B683B617B68FE
:1031EC009B69FB60FB6823F4E043FB60FB6823F402
:1031FC004073FB603B681B681B02FA681343FB605F
:10320C007B6923F020037B613B689B681B017A6917
:10321C0013437B617B681D4A93420DD17B6923F07C
:10322C0080037B613B68DB681B017A6913437B611C
:10323C007B6923F040037B617B68144A934213D172
:10324C003B6923F480633B613B6923F400633B617E
:10325C003B685B699B003A6913433B613B689B6924
:10326C009B003A6913433B617B683A695A607B68FF
:10327C00FA689A613B685A687B689A637B687A69DA
:10328C001A6200BF1C37BD4680BC7047002C014041
:10329C0080B487B000AF786039607B681B6A23F418
:1032AC0080727B681A627B681B6A7B617B685B68D7
:1032BC003B617B68DB69FB60FB6823F07003FB60A0
:1032CC00FB6823F00303FB603B681B68FA6813433D
:1032DC00FB607B6923F400737B613B689B681B027A
:1032EC007A6913437B617B681D4A93420DD17B69DC
:1032FC0023F400637B613B68DB681B027A69134330
:10330C007B617B6923F480637B617B68144A934205
:10331C0013D13B6923F480533B613B6923F4005385
:10332C003B613B685B691B013A6913433B613B683A
:10333C009B691B013A6913433B617B683A695A608C
:10334C007B68FA68DA613B685A687B68DA637B6889
:10335C007A691A6200BF1C37BD4680BC704700BF3B
:10336C00002C014080B487B000AF786039607B6876
:10337C001B6A23F480527B681A627B681B6A3B6170
:10338C007B685B687B617B68DB69FB60FB6823F4B3
:10339C00E043FB60FB6823F44073FB603B681B68F5
:1033AC001B02FA681343FB603B6923F400533B6137
:1033BC003B689B681B033A6913433B617B680F4A6C
:1033CC00934209D17B6923F480437B613B685B6941
:1033DC009B017A6913437B617B687A695A607B68CD
:1033EC00FA68DA613B685A687B681A647B683A69E8
:1033FC001A6200BF1C37BD4680BC7047002C0140D0
:10340C0080B487B000AFF860B9607A60FB681B6A63
:10341C007B61FB681B6A23F00102FB681A62FB6884
:10342C009B693B613B6923F0F0033B617B681B01AB
:10343C003A6913433B617B6923F00A037B617A6928
:10344C00BB6813437B61FB683A699A61FB687A69D4
:10345C001A6200BF1C37BD4680BC704780B487B071
:10346C0000AFF860B9607A60FB681B6A23F0100249
:10347C00FB681A62FB689B697B61FB681B6A3B619A
:10348C007B6923F470437B617B681B037A6913436C
:10349C007B613B6923F0A0033B61BB681B013A696C
:1034AC0013433B61FB687A699A61FB683A691A625B
:1034BC0000BF1C37BD4680BC704780B485B000AFE0
:1034CC00786039607B689B68FB60FB6823F0700355
:1034DC00FB603A68FB68134343F00703FB607B68AF
:1034EC00FA689A6000BF1437BD4680BC704780B440
:1034FC0087B000AFF860B9607A603B60FB689B688E
:10350C007B617B6923F47F437B613B681A027B6898
:10351C001A43BB6813437A6913437B61FB687A696E
:10352C009A6000BF1C37BD4680BC704780B487B022
:10353C0000AFF860B9607A60BB6803F01F0301222A
:10354C0002FA03F37B61FB681A6A7B69DB431A405E
:10355C00FB681A62FB681A6ABB6803F01F03796880
:10356C0001FA03F31A43FB681A6200BF1C37BD460D
:10357C0080BC704780B485B000AF786039607B68E0
:10358C0093F83C30012B01D1022346E07B680122E9
:10359C0083F83C207B68022283F83D207B681B6803
:1035AC005B68FB607B681B689B68BB60FB6823F0F7
:1035BC007003FB603B681B68FA681343FB607B6815
:1035CC001B68FA685A607B681B68164A93420ED0D7
:1035DC007B681B68B3F1804F09D07B681B68124A6B
:1035EC00934204D07B681B68104A93420CD1BB6891
:1035FC0023F08003BB603B685B68BA681343BB6015
:10360C007B681B68BA689A607B68012283F83D204E
:10361C007B68002283F83C20002318461437BD46F3
:10362C0080BC7047002C01400004004000080040A2
:10363C0080B483B000AF786000BF0C37BD4680BC4F
:10364C00704780B483B000AF786000BF0C37BD46C4
:10365C0080BC704780B582B000AF78607B68002B6F
:10366C0001D101233FE07B6893F83D30DBB2002BA6
:10367C0006D17B68002283F83C207868FDF712FEA7
:10368C007B68242283F83D207B681B68DA687B68A2
:10369C001B6822F40052DA60786800F025FC7B6825
:1036AC001B681A697B681B6822F490421A617B685C
:1036BC001B685A697B681B6822F02A025A617B6876
:1036CC001B68DA687B681B6842F40052DA607B681E
:1036DC0000221A647B68202283F83D207B6820221C
:1036EC0083F83E20002318460837BD4680BD80B5C0
:1036FC008AB002AFF860B9603B601346FB800023D0
:10370C007B61FB6893F83D30DBB2202B7CD1BB682E
:10371C00002B02D0FB88002B01D1012375E0FB6844
:10372C0093F83C30012B01D102236EE0FB6801229F
:10373C0083F83C20FB6800221A64FB68212283F882
:10374C003D20FEF793F87861FB68FA889A84FB6851
:10375C00FA88DA84FB689B68B3F5805F08D1FB6854
:10376C001B69002B04D10023FB61BB68BB6103E028
:10377C00BB68FB610023BB61FB68002283F83C2023
:10378C002AE03B6800937B6900228021F86800F0F6
:10379C0011FA0346002B01D0032336E0FB69002B02
:1037AC000BD1BB691B881A46FB681B68C2F3080265
:1037BC005A60BB690233BB6107E0FB691A78FB688E
:1037CC001B685A60FB690133FB61FB68DB8C9BB2A5
:1037DC00013B9AB2FB68DA84FB68DB8C9BB2002B52
:1037EC00CFD13B6800937B6900224021F86800F040
:1037FC00E1F90346002B01D0032306E0FB682022ED
:10380C0083F83D20002300E0022318462037BD46F4
:10381C0080BD000080B58AB000AF78607B681B6803
:10382C001B687B627B681B68DB683B627B681B6880
:10383C005B69FB610023BB6100237B617B6A03F046
:10384C000F03BB61BB69002B0DD17B6A03F0200316
:10385C00002B08D03B6A03F02003002B03D07868C0
:10386C0000F099FA7BE1BB69002B00F0B180FB6999
:10387C0003F00103002B05D13B6A03F49073002B7A
:10388C0000F0A6807B6A03F00103002B0AD03B6A90
:10389C0003F48073002B05D07B681B6C43F0010292
:1038AC007B681A647B6A03F00403002B0AD0FB6963
:1038BC0003F00103002B05D07B681B6C43F0020264
:1038CC007B681A647B6A03F00203002B0AD0FB6945
:1038DC0003F00103002B05D07B681B6C43F0040242
:1038EC007B681A647B6A03F00803002B0FD03B6AD9
:1038FC0003F02003002B04D1FB6903F00103002B20
:10390C0005D07B681B6C43F008027B681A647B68EB
:10391C001B6C002B00F01E817B6A03F02003002B34
:10392C0007D03B6A03F02003002B02D0786800F02C
:10393C0032FA7B681B685B6903F04003002B14BFF1
:10394C0001230023DBB27B617B681B6C03F0080353
:10395C00002B02D17B69002B31D0786800F074F910
:10396C007B681B685B6903F04003002B23D07B68EA
:10397C001B685A697B681B6822F040025A617B689D
:10398C009B6B002B13D07B689B6B764A5A637B68CE
:10399C009B6B1846FEF7BCF80346002B16D07B68D1
:1039AC009B6B5B6B7A68926B104698470EE078685D
:1039BC0000F0ECF80AE0786800F0E8F806E07868C7
:1039CC0000F0E4F87B6800221A64C3E000BFC1E099
:1039DC007B681B6B012B40F0A1807B6A03F010030A
:1039EC00002B00F09B803B6A03F01003002B00F0CF
:1039FC0095800023FB607B681B681B68FB607B6801
:103A0C001B685B68FB60FB687B681B685B6903F089
:103A1C004003002B4ED07B689B6B1B685B683B8222
:103A2C003B8A002B00F098807B689B8D3A8A9A42E7
:103A3C0080F092807B683A8ADA857B689B6B9B6905
:103A4C00202B2BD07B681B68DA687B681B6822F400
:103A5C008072DA607B681B685A697B681B6822F08D
:103A6C0001025A617B681B685A697B681B6822F0EB
:103A7C0040025A617B68202283F83E207B6800223A
:103A8C001A637B681B68DA687B681B6822F010027B
:103A9C00DA607B689B6B1846FDF7FFFF7B689A8D9D
:103AAC007B68DB8D9BB2D31A9BB21946786800F009
:103ABC0076F851E07B689A8D7B68DB8D9BB2D31ACC
:103ACC007B827B68DB8D9BB2002B47D07B8A002BE3
:103ADC0044D07B681B68DA687B681B6822F49072A0
:103AEC00DA607B681B685A697B681B6822F00102EC
:103AFC005A617B68202283F83E207B6800221A637F
:103B0C007B681B68DA687B681B6822F01002DA603D
:103B1C007B8A1946786800F042F81FE07B6A03F054
:103B2C008003002B08D03B6A03F08003002B03D0EA
:103B3C00786800F0C9F812E07B6A03F04003002BB0
:103B4C000DD03B6A03F04003002B08D0786800F0DE
:103B5C000AF904E000BF02E000BF00E000BF283714
:103B6C00BD4680BDAD3C000880B483B000AF78602A
:103B7C0000BF0C37BD4680BC704780B483B000AF2B
:103B8C00786000BF0C37BD4680BC704780B483B0F2
:103B9C0000AF786000BF0C37BD4680BC704780B466
:103BAC0083B000AF78600B467B8000BF0C37BD46FE
:103BBC0080BC704780B584B000AFF860B9603B60E2
:103BCC001346FB712CE0BB69B3F1FF3F28D0BB69F6
:103BDC00002B07D0FDF74AFE02463B68D31ABA69A0
:103BEC009A421DD2FB681B68DA68FB681B6822F4DA
:103BFC00D072DA60FB681B685A69FB681B6822F09C
:103C0C0001025A61FB68202283F83D20FB682022C8
:103C1C0083F83E20FB68002283F83C2003230FE04E
:103C2C00FB681B681A68BB681340BA689A420CBFE1
:103C3C0001230023DBB21A46FB799A42C3D000233E
:103C4C0018461037BD4680BD80B483B000AF786095
:103C5C007B681B68DA687B681B6822F49072DA60F8
:103C6C007B681B685A697B681B6822F001025A61E9
:103C7C007B681B6B012B07D17B681B68DA687B6840
:103C8C001B6822F01002DA607B68202283F83E2049
:103C9C007B6800221A6300BF0C37BD4680BC70479E
:103CAC0080B584B000AF78607B685B6AFB60FB68B2
:103CBC000022DA85FB680022DA84F868FFF766FFD9
:103CCC0000BF1037BD4680BD80B485B000AF7860B2
:103CDC007B6893F83D30DBB2212B3ED17B689B682F
:103CEC00B3F5805F14D17B681B69002B10D17B6806
:103CFC001B6AFB60FB681B881A467B681B68C2F357
:103D0C0008025A607B681B6A9A1C7B681A6208E07E
:103D1C007B681B6A591C7A6811621A787B681B686D
:103D2C005A607B68DB8C9BB2013B9BB27A6819466C
:103D3C00D184002B0FD17B681B68DA687B681B6809
:103D4C0022F08002DA607B681B68DA687B681B688B
:103D5C0042F04002DA60002300E0022318461437D8
:103D6C00BD4680BC704780B582B000AF78607B6880
:103D7C001B68DA687B681B6822F04002DA607B689B
:103D8C00202283F83D207868FFF7EEFE00231846CA
:103D9C000837BD4680BD80B586B000AF78607B68C3
:103DAC0093F83E30DBB2222B40F099807B689B6805
:103DBC00B3F5805F17D17B681B69002B13D10023EF
:103DCC007B617B689B6A3B617B681B685B689BB211
:103DDC00C3F308039AB23B691A807B689B6A9A1CEE
:103DEC007B689A6226E07B689B6A7B6100233B615F
:103DFC007B689B68B3F5805F07D07B689B68002B62
:103E0C000AD17B681B69002B06D17B681B685B6839
:103E1C00DAB27B691A7008E07B681B685B68DBB2FE
:103E2C0003F07F03DAB27B691A707B689B6A5A1CB9
:103E3C007B689A627B68DB8D9BB2013B9BB27A6894
:103E4C001946D185002B48D17B681B68DA687B68E2
:103E5C001B6822F02002DA607B681B68DA687B68DA
:103E6C001B6822F48072DA607B681B685A697B6875
:103E7C001B6822F001025A617B68202283F83E20E5
:103E8C007B681B6B012B23D17B6800221A637B6838
:103E9C001B68DA687B681B6822F01002DA607B68AA
:103EAC001B681B6803F01003102B0AD10023FB6066
:103EBC007B681B681B68FB607B681B685B68FB602E
:103ECC00FB687B689B8D19467868FFF768FE02E0FB
:103EDC007868FFF752FE002302E0002300E0022383
:103EEC0018461837BD4680BD80B584B000AF7860E9
:103EFC007B681B681B6923F440517B68DA687B681C
:103F0C001B680A431A617B689A687B681B691A43B1
:103F1C007B685B691343BB607B681B68DB6823F4BD
:103F2C00B05323F00C037A681268B9680B43D36062
:103F3C007B681B685B6923F440717B689A697B68BA
:103F4C001B680A435A617B681B682C4A934203D155
:103F5C00FEF7F0FBF86002E0FEF7D8FBF860FA68B9
:103F6C0013469B0013449A001A447B685B689B00C1
:103F7C00B2FBF3F3224AA2FB03235B091901FA6893
:103F8C0013469B0013449A001A447B685B689B00A1
:103F9C00B2FBF3F21A4BA3FB02035B09642000FB98
:103FAC0003F3D31A1B013233154AA2FB03235B091B
:103FBC0003F0F0031944FA6813469B0013449A006B
:103FCC001A447B685B689B00B2FBF3F20C4BA3FBBF
:103FDC0002035B09642000FB03F3D31A1B01323389
:103FEC00074AA2FB03235B0903F00F027B681B68E3
:103FFC000A449A6000BF1037BD4680BD00380140AE
:10400C001F85EB51014B1868704700BF380000202A
:10401C0070B500260C4D0D4C641BA410A64209D1A2
:10402C0000F05CFC00260A4D0A4C641BA410A6424E
:10403C0005D170BD55F8043B98470136EEE755F8AD
:10404C00043B98470136F2E7D4490008D4490008EC
:10405C00D4490008D849000803460244934200D1D1
:10406C00704703F8011BF9E70EB46FF0004100B57F
:10407C009CB01DAB02900690079104910848094929
:10408C0053F8042B0591006802A9019300F068F81D
:10409C000022029B1A701CB05DF804EB03B0704751
:1040AC00380000200802FFFF2DE9F0478E68824699
:1040BC009E420C4690461F4638D88A8912F4906F5F
:1040CC0032D0256809690133A5EB010965694B44B8
:1040DC0005EB450505EBD5756D109D4238BF1D46AA
:1040EC00530531D5294600F053FB064650B90C2335
:1040FC004FF0FF30CAF80030A38943F04003A3818E
:10410C00BDE8F0874A46216900F0CEFAA38923F472
:10411C00906343F08003A38126614E4426603E46A3
:10412C006561A5EB0905A560BE4200D93E46324645
:10413C004146206800F0C6FAA36822689B1B3244F3
:10414C000020A3602260DBE72A4600F07BFB0646DA
:10415C000028E1D15046216900F0CEFAC7E70000F3
:10416C002DE9F04F98468B8907461B060D461446E1
:10417C009DB00ED50B6963B9402100F009FB286096
:10418C00286120B90C233B604FF0FF30D1E0402375
:10419C006B610023099320238DF8293030234FF0D5
:1041AC000109CDF80C80DFF8A4818DF82A30234664
:1041BC009A4613F8012B0AB1252AF9D1BAEB040B54
:1041CC000BD05B46224629463846FFF76DFF01307F
:1041DC0000F0AA80099A5A4409929AF80030002BF0
:1041EC0000F0A28000234FF0FF32CDE905230AF145
:1041FC00010A049307938DF853301A935446052201
:10420C0014F8011B514800F041FA049AD8B9D006B1
:10421C0044BF20238DF85330110744BF2B238DF856
:10422C0053309AF800302A2B15D0544600204FF00A
:10423C000A0C079A214611F8013B303B092B4ED949
:10424C00B0B1079214E0A0EB080309FA03F313438F
:10425C00A2460493D2E7039B191D1B680391002B04
:10426C00BBBF5B4242F0020207930793B8BF0492B4
:10427C0023782E2B0CD163782A2B35D1039B023457
:10428C001A1D1B680392002BB8BF4FF0FF33059328
:10429C00DFF8C8A003225046217800F0F7F940B1AE
:1042AC004023A0EB0A0003FA00F0049B0134034303
:1042BC00049314F8011B062225488DF8281000F0F1
:1042CC00E5F9002838D0234B1BBB039B073323F0A5
:1042DC00070308330393099B3344099367E70C46A0
:1042EC0001200CFB0232A5E700234FF00A0C194603
:1042FC0001340593204610F8012B303A092A03D9D2
:10430C00002BC5D00591C3E7044601230CFB01210A
:10431C00F0E703AB00932A4638460F4B04A9AFF3E2
:10432C000080421C0646D6D1AB895B063FF52CAF0C
:10433C0009981DB0BDE8F08F03AB00932A463846B0
:10434C00054B04A900F07CF8EBE700BFA04900087E
:10435C00AA49000800000000B5400008A649000862
:10436C002DE9F047164699468A680B690746934231
:10437C00B8BF1346336091F843200C46DDF820801B
:10438C000AB1013333602368990642BF33680233A4
:10439C003360256815F0060506D104F1190AE368A7
:1043AC0032689B1AAB4228DC94F84320131E226817
:1043BC0018BF012392062DD44946384604F1430216
:1043CC00C047013020D02368E56803F00603042BB6
:1043DC0018BF002532684FF00006A36808BFAD1A5D
:1043EC00226908BF25EAE5759342C4BF9B1AED18F4
:1043FC001A34B5421AD1002008E00123524649462E
:10440C003846C047013003D14FF0FF30BDE8F0878C
:10441C000135C4E73020E11881F843005A1C94F8A8
:10442C0045102244023382F84310C5E7012322468B
:10443C0049463846C0470130E6D00136D9E700007E
:10444C002DE9FF470C46277E9146782F80469A46E9
:10445C000C9904F1430207D8622F0AD8002F00F000
:10446C00D980582F00F0A48004F1420684F84270E1
:10447C003AE0A7F16303152BF6D801A050F823F00E
:10448C00E5440008F9440008754400087544000828
:10449C007544000875440008F94400087544000888
:1044AC007544000875440008754400080746000868
:1044BC0029450008E94500087544000875440008C2
:1044CC002946000875440008294500087544000871
:1044DC0075440008F14500080B6804F142061A1DEA
:1044EC001B680A6084F842300123A4E02568086840
:1044FC002E0600F104030AD505680B60002D03DAC3
:10450C002D236D4284F843300A235E4819E015F0E0
:10451C00400F05680B6018BF2DB2EFE70B682568DC
:10452C00181D0860280601D51D6802E06906FBD538
:10453C001D886F2F0CBF08230A235248002184F8D2
:10454C0043106668002EA8BF2168A660A4BF21F0A6
:10455C00040121600DB9002E4DD01646B5FBF3F1C8
:10456C0003FB1157C75D06F8017D2F46BB420D4674
:10457C00F4D9082B0BD12368DF0708D523696168B0
:10458C009942DEBF302306F8013C06F1FF36921B40
:10459C0022614B4621464046CDF800A003AAFFF706
:1045AC00DFFE01304CD14FF0FF3004B0BDE8F08796
:1045BC00344884F845700E68236856F8045B1F066F
:1045CC000E6014D5D90744BF43F0200323601DB9F6
:1045DC00236823F0200323601023AFE7236843F004
:1045EC00200323607823284884F84530E3E75E06EF
:1045FC0048BFADB2E6E71646BBE70B6826681D1D43
:10460C0060690D6035061B6801D5186002E0710603
:10461C00FBD51880002316462361BAE70B681A1DD8
:10462C000A601E6800213046626800F02FF808B15D
:10463C00801B606063682361002384F84330A8E723
:10464C003246494640462369D0470130ABD02368F7
:10465C009B0713D4E068039B9842B8BF1846A4E7A5
:10466C000123324649464046D04701309BD00135A4
:10467C00E36803995B1AAB42F2DCEBE7002504F12B
:10468C001906F5E7B1490008C2490008034610B500
:10469C00C9B202449342184601D1002003E00478C9
:1046AC0001338C42F6D110BD0A44914200F1FF3324
:1046BC0000D1704710B511F8014B914203F8014F2E
:1046CC00F9D110BD884210B501EB020402D9844225
:1046DC00234607D8431EA14208D011F8012B03F83A
:1046EC00012FF8E7014602448A4200D110BD13F8AD
:1046FC00014D02F8014DF7E738B50546002943D0C6
:10470C0051F8043C0C1F002BB8BFE41800F0D0F893
:10471C001E4A1368104633B9636014602846BDE81E
:10472C00384000F0CBB8A3420AD9216862189342F2
:10473C0001BF1A685B685218226063600460EDE781
:10474C001A465B680BB1A342FAD911685018A04203
:10475C000BD120680144501883421160DED11868D7
:10476C005B68014411605360D8E702D90C232B60BD
:10477C00D4E7206821188B4201BF19685B680918BF
:10478C00216063605460C9E738BD00BF040100209C
:10479C00F8B5CD1C25F0030508350C2D38BF0C25BC
:1047AC00002D064601DBA94203D90C2333600020FF
:1047BC00F8BD00F07DF821490A6814469CB9204FD9
:1047CC003B6823B92146304600F062F83860294630
:1047DC00304600F05DF8431C23D10C233046336087
:1047EC0000F06CF8E3E723685B1B17D40B2B03D9A1
:1047FC0023601C44256004E06368A2420CBF0B607C
:10480C005360304600F05AF804F10B00231D20F0E1
:10481C000700C21ACCD01B1AA350C9E72246646801
:10482C00CCE7C41C24F00304A042E3D0211A304688
:10483C0000F02EF80130DDD1CFE700BF04010020DD
:10484C0008010020F8B5074614460E4621B911465A
:10485C00BDE8F840FFF79CBF22B9FFF74DFF254696
:10486C002846F8BD00F030F8A0420FD22146384659
:10487C00FFF78EFF05460028F2D031462246FFF79F
:10488C0013FF31463846FFF737FFE9E73546E7E7D0
:10489C0038B50023054D044608462B60FCF790FD07
:1048AC00431C02D12B6803B1236038BD0C020020DD
:1048BC00014800F011B800BF14020020014800F0BC
:1048CC000CB800BF1402002051F8043C181F002B38
:1048DC00BCBF0B58C018704770477047F8B500BF85
:1048EC00F8BC08BC9E467047F8B500BFF8BC08BCC5
:0448FC009E4670471D
:10490000415F5245443A2025640D0A00415F4752F9
:1049100045454E3A2025640D0A000000415F594587
:104920004C3A2025640D0A00485F5245443A202540
:10493000640D0A00485F475245454E3A2025640DF4
:104940000A000000485F59454C3A2025640D0A00D2
:104950004D5F5245443A2025640D0A004D5F475291
:1049600045454E3A2025640D0A0000004D5F59452B
:104970004C3A2025640D0A000203040506070809C5
:104980000A0B0C0D0E0F10100000000000000000BC
:1049900001020304060708090000000001020304E5
:1049A000232D302B2000686C4C0065666745464718
:1049B000003031323334353637383941424344459B
:1049C000460030313233343536373839616263640A
:0449D0006566000018
:0449D40031010008A5
:0449D8000D010008C5
:1049DC002C01000002001000010001000100000089
:1049EC00630000000500000005000000030000004B
:1049FC000200000005000000030000000024F40089
:104A0C0010000000010000003C000020000000002D
:104A1C00000000000000000000000000000000008A
:104A2C00000000000000000000000000000000007A
:104A3C00000000000000000000000000000000006A
:104A4C00000000000000000000000000000000005A
:104A5C00000000000000000000000000000000004A
:0C4A6C000000000000000000000000003E
:040000050800177D5B
:00000001FF
